:020000040000FA
:2000000000C00420550300001D030000AD0600002103000023030000250300002703000035
:200020000000000000000000000000004D2B00002B03000000000000F12A00008D2800004A
:20004000952D00009D2D0000A52D0000AD2D0000B52D0000BD2D0000C52D0000CD2D0000B0
:20006000D52D0000DD2D0000E52D0000ED2D0000F52D0000FD2D0000052E00000D2E00008E
:20008000152E00001D2E0000252E00002D2E0000352E00003D2E0000452E00004D2E000068
:2000A000552E00005D2E0000652E00006D2E0000752E00007D2E0000852E00008D2E000048
:2000C000952E00009D2E0000A52E0000AD2E0000B52E0000BD2E0000C52E0000CD2E000028
:2000E000D52E0000DD2E0000E52E0000ED2E0000F52E0000FD2E0000052F00000D2F000006
:20010000152F00001D2F0000252F00002D2F0000352F00003D2F0000592D0000452F0000D5
:200120004D2F0000552F00005D2F0000652F00006D2F0000752F00007D2F0000852F0000FF
:200140008D2F0000952F00009D2F0000A52F0000AD2F0000B52F0000BD2F0000C52F0000DF
:20016000CD2F0000D52F0000DD2F0000E52F0000ED2F0000F52F0000FD2F000005300000BE
:200180000D300000153000001D300000253000002D300000353000003D3000004530000097
:2001A0004D300000553000005D300000653000006D300000753000007D3000008530000077
:2001C0008D300000953000009D300000A5300000AD300000B5300000BD300000C530000057
:2001E000CD300000D5300000DD300000E5300000ED300000F5300000FD3000000531000036
:200200000D310000153100001D310000253100002D310000353100003D310000453100000E
:200220004D310000553100005D310000653100006D310000753100007D31000085310000EE
:200240008D310000953100009D310000A5310000AD310000B5310000BD310000C5310000CE
:20026000CD310000D5310000DD310000E5310000ED310000F5310000FD31000005320000AD
:200280000D320000153200001D320000253200002D320000353200003D3200004532000086
:2002A0004D320000553200005D32000065320000783D00000000002010000000783D000078
:2002C00000E0042000000000783D000000E0042000000000783D000000E0042000000000A8
:2002E000783D000000E0042000000000783D000000E0042000000000783D000000C00420F3
:200300000000000010000020680C000000E004200000000000C0042000000000FEE7FEE787
:20032000FEE7FEE7FEE7FEE7FEE7FEE7FEE7FEE7FEE7002310B5934200D310BD1C585C5033
:200340000433F8E700231A468B4200D370471A500433F9E772B6124B124A16480360196809
:2003600081F3088882F30A8800F024FA0E4C0F4DAC4206D30E4DAC420AD362B600F0C2F8FF
:20038000FEE7D4E90001A2680C34FFF7D2FFEFE754F8080B54F8041CFFF7D4FFEBE700BFAE
:2003A0000000000000B00420B0020000040300001C03000008ED00E0088070472DE9FF4127
:2003C00000252D4C4FF4C0520021204603F0CEFB04F15003012229460093182004F5807356
:2003E000CDE9015501F088F9206002F02BFC234A2349072002F0B6FB2A462B4601202149D7
:2004000002F046FC1D4A13889BB2012BFBD100221D49082002F0A6FB00231C4D04222946FD
:2004200020682B6001F0CDF9194FDFF86C802B68642B06D9206801F09CF9164803F062F80D
:20044000FEE74FF0FF3329460422606801F02BFA0646384603F056F831462A68404603F046
:2004600051F82B68042201332B6029460023206801F0A7F9DBE700BF00C0042090080020F3
:20048000B903000000E004209D04000094080020A63B0000E23B0000C43B0000002307B563
:2004A000012801930CD1084B01A9186801F059FA019B2BB14FF0E0234FF08052C3F8042D2A
:2004C00003B05DF804FB00BF04C00420034B0360034B0B605A231360704700BFB8040020C2
:2004E00050030020034B0360034B0B60B4231360704700BFE00200201000002001210820E3
:2005000002F07ABB1FB500F021F80A4802F0FAFF094BBE220293094B094901930123094822
:200520000093002301F0B0FA01F086FB064802F0E9FFFEE7093C0000200800202805002011
:20054000323C0000BD0300003B3C000008B501214FF4AC7000F036FA43F2180000F008FA59
:2005600000F02FF800F0A0F800F02EF84FF080434FF48002C3F82022024A136943F4806320
:20058000136108BD0060094002F04CBB4FF080434FF48042C3F820224FF48032C3F820228A
:2005A0004FF4905203F58B1303F58053A3F8A020A3F8A4204FF4805203F50053A3F8902050
:2005C0007047FFF7E3BFFFFF10B543F2180000F0CFF9064800F06EFDBDE8104001224FF400
:2005E000E1310420024B02F061BE00BF0F000100001BB7004FF080624FF0804370B5234D0E
:200600008AB0C3F82822224C43F2FE3000F0B0F9EB8869462046ADF8003000F0EEFD2B8945
:2006200001A92046ADF8043000F0A5FD194A02A99368204623F00F0343F0030393606B898B
:200640000024ADF8083000F051FD134800F050F90823124A0126CDE903233223104D03A8E0
:20066000CDE90563CDE90744099500F047FA204600F072F946F2FE3000F07AF9314620204B
:2006800000F0A0F9074B1D600AB070BD813C00000050044000300440006CDC02B035000225
:2006A00080D1F00800000020FFF7A4BF04207146084202D0EFF3098001E0EFF308808169E1
:2006C0000A884BF6AB639A4200D0FEE7023181610168012901D0002100E0202101607047D5
:2006E00030B50C468BB00546684600F015FC63680093237A8DF80430637A8DF80730A37A24
:20070000003B18BF01238DF82730E37A003B18BF01238DF82630E37B2BB1082B28BF0823DA
:20072000013B8DF80830237C2BB1082B28BF0823013B8DF80930237BA07B003B18BF012317
:200740008DF80A30637B6946003B18BF01238DF80B3040F20113ADF80E30074B226853F807
:20076000200000F0E1FA18B9A37B2B700BB030BD42F6AF70FAE700BF943C000008B5064B87
:20078000007853F8200000F022FC002842F6AF7008BF002008BD00BF943C000008B5044BA2
:2007A000007853F8200000F003FC002008BD00BF943C000008B5334B0020D3F8882042F4EF
:2007C0007002C3F88820D3F8882042F00F02C3F88820D3F88C2042F4406242F00302C3F8EA
:2007E0008C204FF08042C2F8440ED2F8001421F40031C2F8001424499960D2F8243823F0AF
:200800000103C2F8243802F51832936A23F4402343F400239362D36A23F4402343F40023A6
:20082000D3621A4BD3F8001141F48051C3F80011D3F8441121F48031C3F844113C21C3F862
:200840004411D3F8441141F48031C3F84411916A21F0030141F002019162D16A21F00301A6
:2008600041F00201D162A2F50052906002F580529060D3F8002342F08072C3F80023FFF799
:2008800083FE08BD00ED00E00000000000500440044BD3F80003044B10F0100018BF184600
:2008A000704700BF00400440006CDC02044BD3F8000110F080701CBF024B1868704700BFCB
:2008C0000040044008000020074B0246D3F8000410F0807007D003F5A833D3F8200110402D
:2008E0001CBF024B186870470040044004000020174B984227D003F1B76303F55843984243
:2009000023D10122134BC3F80823D3F8002322F40002C3F80023D3F8002342F01002C3F8AB
:200920000023D3F8002342F02002C3F80023D3F8002342F00102C3F80023D3F80023D201B2
:20094000FBD5002070470022DCE70120704700BF006CDC0200400440044AD2F8003523F442
:2009600040330343C2F80035704700BF0040044030F0004330B51CD0022483B29BB140F2C8
:20098000FE31C3F30B021B0B013B8A42DBB211D10B4A1D06516963F31B61516113696B40EB
:2009A00013F0706FFAD1012C03D0000C4FF00104E3D130BD920002F18042C2F86032F2E72D
:2009C000004004404FF0C043800000F18040C0F8003321B94FF08043C0F80033704701397D
:2009E000C0F800137047FFFF094BD3F80435C3F34163012B04D0022B04D033B9FFF756BFCD
:200A0000FFF746BF0120FFF75FBF0020704700BF0040044010B52DED028BFFF7E5FF344BC7
:200A2000D3F80025D1015FD5D3F8042512033ED4D3F80C25D2B2012A38BF0122D3F80415FC
:200A4000CC0236D4D3F80415D3F81445C90304F01F0458BF6400002C08BF0224B0FBF2F0B2
:200A600007EE900A224AF8EE678AD2F828351B0521D4D2F810359BB207EE903AB8EEE78A36
:200A800018EE100A02F04CFD084308BFB7EE008A07EE104A68EE887AB8EEC77AC7EE876A86
:200AA000BDEC028BFCEEE67A17EE900A10BD0122C4E70124D2E7D2F82835D2F82415DB0198
:200AC000D2F82425DBB222F07E4243EA516307EE902A08EE103AF8EEE77AB8EEC88A9FED09
:200AE000057AA7EE878ACBE7DFED036AD8E700BF0040044000000033000000002E4910B575
:200B0000D1F80038044643F00103C1F80038D1F8003523F00303C1F800350368C1F8043500
:200B20004368C1F80C3543F00043C1F80C358368C1F8143543F00043C1F81435C368C1F857
:200B4000103543F00043C1F810350369C1F824354369C1F82835194B8B60FFF745FFD1F84A
:200B600004250346120324D4D1F80C25D2B2012A38BF0122B3FBF2F34FF4FA62B3FBF2F36E
:200B80000D4A03F59673C3F31003C2F81835D2F8003543F00303C2F80035D2F80035DB012B
:200BA000FBD5A469FFF736FF844214BF0320002010BD0122DEE700BF0040044001005A5AA4
:200BC000184B70B553F820300446D3F8F45F15F0300F09D0144B00F11E0253F822301BB194
:200BE000124951F822109847AA070AD00E4B04F10A0253F8223023B10C49204651F82210B4
:200C000098476B070CD5084B04F1140253F8223033B106492046BDE8704051F822101847DF
:200C200070BD00BFF83C0000380900209808002038B50C460121234B054633F810301A0ACA
:200C4000FA2ADBB201FA03F14FF080431AD1D3F8382E0A43C3F8382E4022C3F82C221A4B98
:200C600053F8250000F026FA184B53F82530C4B1032C14D8D3F8F82FE11CCA40D10710D4AC
:200C800003201BE0FB2A06D1D3F83C2E0A43C3F83C2E8022E1E7883243F82210DFE7072C09
:200CA000EED1D3F8F82F120705D5D3F8F82F02F00702944203D10020C3F8F84F38BD0120C1
:200CC000FCE700BFE43C0000BC3C0000F83C00000020FFF775BF0120FFF772BF0220FFF77C
:200CE0006FBF0320FFF76CBF0420FFF769BF0520FFF766BF0620FFF763BF0720FFF760BF86
:200D00000820FFF75DBF0920FFF75ABF03460020044A52F8041B994202D001300A28F8D168
:200D2000704700BF203D00002DE9F04700270B6804460D469E464FF0040C3E4641F6FF7AF5
:200D40004FEA42094FEA8308B9FBF8F10131C1F34F01514528BF5146012938BF01210CFB1A
:200D600001F0B2FBF0F0834234BFC01A181A704598BF5FFA8CF70CF1010C9CBF86460E46C4
:200D8000BCF1210F9844DFD16422B3FBF2F303EB43037345C0F0B9802046FFF7B7FF0121C8
:200DA000FFF746FF002840F0A680A3683A1F43F00203A360A368032A23F00203A3602369FC
:200DC00007F1FF3798BF43F4003367F31C636FF30C0333432361236923F000532361A3695E
:200DE000EA7B297923F4E263120223F007030B4302F4E0621A43AB7B9B0003F0040313436B
:200E00006A79012A7CD1002977D023F40063A3612369EA7962F34D3323616A7A2B7A43EA8B
:200E20000243E362A36A43F08803A362A36A43F44043A3626B7B2A7B1B015201616A03F0D4
:200E4000100302F0200213430B436362AB7A1BB1636A43F008036362EB7A1BB1636A43F010
:200E600001036362A9792A4B2A4A002918BF1A4663691343636195F8272095F8263052420D
:200E80005B42A16902F4802203F4002313430B43A3612B8A2A7EA3646B8AE364A16D2B7DFB
:200EA0000B4343EA42032A7F43EA820395F8202043EAC203A3656A7DEB8A43EA8273236649
:200EC0006A7E6B8B43EA827363666A7FEB8B43EA8273A36695F821206B8C43EA8273E3668F
:200EE00095F825301B02236595F824301BB1236D43F00F032365BDE8F08743F4006386E73E
:200F0000002984D043F0100381E740F22150F2E700C01FE000C01FC0282210B50021044652
:200F200002F024FE00234FF4E132C4E90233C4E90023E38410BDFFFF43690B491940436C38
:200F4000C26D9B00806A920002F4705203F03C031343000C0B4300F0C300184320F07850CB
:200F600020F47C50704700BF00C0FFC1C1F3830310B5436400230D4CC3658B0704EA0104CC
:200F800007D0826A230422F4703203F4403313438362436903F0785323434361FFF7CCFFD5
:200FA000204240F21A5008BF002010BD3FC01FC00A44914204D143695B02FCD500207047FA
:200FC00043691B02FCD511F8013BC361F1E72DE9F84386690D46310504460BD406F0120636
:200FE000B31E5E425E4140F21A58AF18AF423FD1002311E00126F6E72046FFF79DFF10F461
:20100000002F81460BD04FF400212046FFF7AEFF00283AD040F21A531846BDE8F88310F43F
:20102000803309D04FF480312046FFF79FFF002814BF43464FF4A46319F4003F09D04FF400
:2010400000312046FFF792FF40F21F53002818BF434619F4802F09D04FF480212046FFF771
:2010600085FF0028D6D140F21E53D5E7002BD3D1E36A13F0706FBFD0E36926B103F07F0399
:2010800005F8013BB2E7DBB2FAE740F21D53C3E701224FF08041030C80B2824003F1480062
:2010A0009B000B4441F8202003F5807319681142FCD0704701224FF08041030C80B2824065
:2010C00003F150009B000B4441F8202003F58073196832EA0101FBD0704710B50446FFF758
:2010E000D7FF2046BDE81040FFF7E4BF0B7803F0030303644B7853B1036C43F080430364B0
:20110000036C002BFCDA036C23F0804303647047D0F80031C3F3810399420CD0D0F8003119
:20112000DA070AD5D0F8003161F38303C0F800310369DB07FCD40020704742F6A8007047A7
:2011400039B9D0F8003113F07C5F09D042F6A5007047012904D1D0F8003113F4401F07D024
:20116000D0F8003161F30003C0F800310020704742F6A600704738B503690446DB070D46F2
:2011800020D4D0F8003113F4401F1ED0D0F8003113F07C5F01D04B78D3B1D4F800312A7880
:2011A000C3F38103934207D001212046FFF7C8FF11462046FFF7ACFF20466978FFF7C0FFAA
:2011C000002038BD42F6A000FBE742F6A600F8E742F6A500F5E7022904D1D0F8003113F4CA
:2011E000401F07D0D0F8003161F30923C0F800310020704742F6A6007047036910B5DC07D7
:2012000002460ED40C784978FFF7E5FF28B9D2F8003164F38B23C2F800311369DB07FCD48B
:2012200010BD42F6A000FBE74FF0FF3200F10803C0E9022343600361002303607047002386
:201240000361704730B50C68631C0AD103695A684A6091608B6059600368086101330360E8
:2012600030BD00F10802134652681568A542FAD9EDE70369D0E901128A6051605968814211
:2012800008BF5A6000220261186801381860704710B5044601F0D8FAA46B01F0E3FAB4FA03
:2012A00084F0400910BD03461A6C084610B46AB1DC68996814448C4228BF1968DC6028BFB2
:2012C000D960D9685DF8044B02F058BC5DF8044B704770B5044601F0B7FA94F8455004F168
:2012E00024066DB2002D01DD636AB3B9FF2384F8453001F0B7FA01F0A7FA94F8445004F105
:2013000010066DB2002D01DD23697BB9FF2384F84430BDE8704001F0A5BA304600F0A8FE0A
:2013200008B100F057FF013D6DB2DBE7304600F09FFE08B100F04EFF013D6DB2E2E770B54B
:201340000E46044610B901F0C1FBFEE7C56B65B3036CA3FB053545BB01F076FAD4E90F31A7
:201360004B432268A563D0185B1A62601A44FF23A06084F84430E26084F8453066B92369E0
:2013800033B104F1100000F073FE08B101F050FA01F068FA012070BD04F11000FFF744FF30
:2013A00004F12400FFF740FFF2E701F08FFBFEE713B51C4613B901F089FBFEE708B11AB1D2
:2013C00021B901F083FBFEE70029FAD150230193019B502B02D001F079FBFEE7002908BFC1
:2013E0002246C4E90F01226001212046019BFFF7A6FF20469DF8103084F84C3002B010BDD5
:201400002DE9FF410E460446019210B901F05EFBFEE721B9036C13B101F058FBFEE700F027
:20142000E5FE0546D8B100254FF0000801F00CFAA76BD7B131462046FFF735FF2369013F25
:20144000A76333B104F1100000F012FE08B101F0EFF901F007FA012004B0BDE8F081019B8E
:20146000002BE1D001F032FBFEE7019B1BB901F0F9F90020F0E715B902A800F06FFE01F07D
:20148000F1F900F01DFC01F0DFF994F84430FF2B08BF84F8448094F84530FF2B08BF84F8F1
:2014A000458001F0DFF901A902A800F063FEC0B92046FFF7EDFE70B1019904F1240000F075
:2014C0009BFD2046FFF705FF00F0BEFC08B901F0AFF90125AAE72046FFF7FBFE00F0B4FC64
:2014E000F7E72046FFF7F5FE00F0AEFC2046FFF7CFFE0028EDD0BCE770B510B901F0E6FAB5
:20150000FEE7B9B100230C4A1C4615465668864204D105EBC403C3E900100BE01BB916683B
:20152000002E08BF13460134082C02F10802EDD1002BF0D170BD00BFD809002070B50446F1
:201540000D46164601F080F994F84430FF2B04BF002384F8443094F84530FF2B04BF002361
:2015600084F8453001F07EF9A36B2BB93246294604F1240000F054FD2046BDE87040FFF72E
:20158000A8BE8268436800681344181A824298BF801A70472DE9F0411C46836817461E1BC9
:2015A000964228BF1646A21993420546884602D201F08CFAFEE780693246204402F0DEFAA8
:2015C000B7420BD9AB68BA1B9A4202D901F07EFAFEE7A86908EB060102F0D0FAAB68E0196E
:2015E000984228BFC01ABDE8F08173B50E46017F1446C9071A460546436813D506990194A2
:201600008A4213D304220DEB0201FFF7C3FF03462CB1224631462846FFF7BCFF68602046ED
:2016200002B070BD944228BF1446F1E70024F6E72DE9F0411C46836817461D1B954228BFF4
:201640001546621993420646884602D201F03EFAFEE781692A464046214402F08FFAAF4232
:2016600005D9B1697A1B08EB050002F087FAB368E019984228BFC01ABDE8F081F7B51646A5
:20168000027F1C46D20705460F4603680BD504220DEB0201FFF7CCFF019A034696422CBF1A
:2016A00016460026043CB44228BF34462CB1224639462846FFF7BCFF2860204603B0F0BDE0
:2016C000F8B50D4604465521284617461E4602F04DFA854202D001F0F9F9FEE72822002116
:2016E000204602F043FA9DF81830C4E9027623770023A5616362F8BD30B585B00446089D0D
:201700000846194613B901F0E1F9FEE715B901F0DDF9FEE7A04202D901F0D8F9FEE7012A97
:2017200004D1042C08D801F0D1F9FEE7022A0CD16CB901F0CBF9FEE7032328220392039ABA
:20174000282A06D001F0C2F9FEE70223F5E70623F3E7012800932246034638BF01232846D6
:20176000FFF7AEFF28462B7F43F002032B7705B030BD08B5034610B901F0A8F9FEE7027F6B
:20178000920704D4013308D001F0A0F9FEE72822BDE80840002102F0E9B908BD38B510B9F6
:2017A00001F094F9FEE782680568036841680468A542F9D1D0180138401A824298BF801A0E
:2017C00038BD2DE9F04387B0044616468946039311B901F07BF9FEE710B901F077F9FEE766
:2017E000027F8368D20703F1FF3323D5371DBE4202D301F06BF9FEE7BB421FD2002303937C
:201800002046FFF7CBFF05462B463246494620460097FFF7EAFE054640B12046FFF7B1FEBD
:20182000E368984202D32046FEF768FE284607B0BDE8F083B34228BF33461F46039B002B2D
:20184000DED004A800F074FC00F0FEFF2046FFF7A5FF8742054623D90020616A00F02CFECC
:20186000D4F81480B8F1000F02D001F02FF9FEE700F0B6FC606100F0F5FF039B4146009381
:2018800042464346606A00F0C1FCC4F8148003A904A800F06FFC0028D6D0002DB0D0B3E7A8
:2018A00000F0E0FFF9E72DE9F7430446904699460F4611B901F00AF9FEE710B901F006F979
:2018C000FEE7067FF30728D416F0040600D0C668B9F1000F3AD000F0B7FF2046FFF751FE86
:2018E000864205461BD200F0BDFF2B46424639462046FFF7C3FE054670B300F0E1F96369A3
:2019000043B100266069009633463246616A00F0CBFC666100F098FA1FE00426D8E700208A
:20192000616A00F0C9FD256915B101F0CFF8FEE700F056FC206100F095FFCDF800902B4628
:201940002A462946606A00F061FC25612046FFF718FEB0420546C8D80025284603B0BDE8D1
:20196000F0832DE9F3418846044610B901F0AEF8FEE701F0ABF82569074600264DB1012594
:201980002069CDE9006833463246616A00F0FCFC2661384601F0A5F8284602B0BDE8F08133
:2019A00008B5044C2368012B00D8FEE700F040FFF8E700BF980A00202DE9F843224B234CEA
:2019C0001D68234B0646D3F80080224B0F46D3F8009020680430FFF74CFC40B922681E497C
:2019E000D06A01220B68824023EA02030B60731C14D19FB1194B21685A688A6090682168FA
:201A0000C860216804314160216804319160226853611A6801321A60BDE8F88323682168EF
:201A2000AD195D6001F1040104D34846BDE8F843FFF708BC4046FFF705FC094B1A68AA42EE
:201A400088BF1D60E8E700BF380A0020FC0A00206C0A0020680A0020340A0020400A0020BC
:201A60001C0A0020064A13681968064B19B94FF0FF321A6070471268D2681268F9E700BF43
:201A80006C0A00201C0A00202DE9F3470C9C0746DDE90A9A0E4615469846BAF1000F02D1A1
:201AA00001F014F8FEE714B901F010F8FEE770230193019A9A4202D001F008F8FEE7002132
:201AC000AD002046019B02F051F82A46A5215046C4F830A002F04AF8236B043D1D4425F04B
:201AE000070525646EB1731E04F13302093613F8011F02F8011F09B1B342F8D1002384F8DC
:201B00003D30B9F1040F02D900F0E0FFFEE7261D3046C4F82C90C4F84C90FFF790FB04F1CD
:201B20001800FFF78CFBC9F1050143463A462846A1612461216B646200F0D6FE206000F0CC
:201B400083FE314B314F1A68DFF8E48001321A603D68002D4CD13C601B68012B1CD1C14670
:201B600048460135FFF760FB052D09F11409F7D1DFF8C090264D4846FFF756FB2846FFF76C
:201B800053FB2448FFF750FB2348FFF74DFB234BC3F80090224B1D60224A2349136808683B
:201BA0000133136001226364E36A9A4002430A601422534308EB03014A689068A260E0600F
:201BC0004660966058F803206161013248F8032000F048FE154B1B6833B13B68DA6AE36A6D
:201BE0009A4201D200F024FE204602B0BDE8F0870E4B1A68E36A002ACED13A68D26A9A4245
:201C000098BF3C60C8E700BF3C0A0020FC0A0020700A0020540A0020400A00206C0A0020BF
:201C2000680A0020200A0020340A0020300A0020980A0020840A002030B58BB007AB1D466B
:201C4000194A12F8014B03F8014B002CF9D106AA05A904A8CDE90444FEF738FC049B29464F
:201C60000293059B069ACDE9004310482346FFF70BFF80B100F088FD012805460FD100F0EB
:201C800025FF4FF0FF320A4B1A600A4B1D600A4B1C6000F061FE094B1B680BB030BD01353A
:201CA000F9D100F013FFFEE7603C0000A11900001C0A0020300A0020380A0020483D000096
:201CC000024A136801331360704700BF180A0020014B1868704700BF380A00202DE9F84FDD
:201CE0004E4B1B68002B40F092804D4B1C6801341C608CB94B4B1A68126812B100F0E6FE20
:201D0000FEE7494A1968106818601160474A136801331360FFF7A6FE454D00202B689C42F9
:201D200006D2444B1B68002B18BF0120BDE8F88F84463C4F404E41493B681B681BB94FF0C4
:201D4000FF332B60EDE73B68DB68DB685A68944201D22A60E5E7D3F81480D3E90229C2F808
:201D60000890C9F80420D8F8042003F1040E7245D8F8002008BFC8F80490013AC3F814C060
:201D8000C8F80020D3F82880B8F1000F14D0D3E90729C2F80890C9F80420D8F8042003F149
:201DA000180A5245D8F8002008BFC8F80490013AC3F828C0C8F800204FF00108DA6AD6F847
:201DC000009008FA02F848EA0908C6F800804FF0140808FB02F801EB080ADAF80490D9F869
:201DE00008B0C3F80890C3F80CB0CBF804E0C9F808E0C3F814A051F80830013341F808307C
:201E00000F4B1B68DB6A9A4288BF012094E70D4A002013680133136088E700BF180A0020D8
:201E2000380A00206C0A0020680A0020240A00201C0A0020280A0020340A0020980A002012
:201E4000FC0A00202C0A00202DE9F84F00F0FCFC464B1A6812B900F039FEFEE71A68013A1A
:201E60001A601B682BB1002400F0FCFC2046BDE8F88F3F4A1268002AF5D0012514263D4814
:201E80003D4C3E4A3E4FDFF800C153E0C368DB68D3F828E0D3E90718C1F80880C8F80410A8
:201EA000DEF8041003F1180949454FF0000108BFCEF804809962DEF800100139CEF8001053
:201EC000D3F814E0D3E90218C1F80880C8F80410DEF8041003F104094945DEF8001008BF32
:201EE000CEF804800139CEF80010D3F82CE0D4F8008005FA0EF141EA080106FB0EF802EB3F
:201F0000080A2160DAF80410D1F808B09960C3F80CB0CBF80490C1F8089052F80810C3F892
:201F200014A0013142F808103968C96A8E4501D9CCF8005001680029A8D10BB1FFF792FD88
:201F4000104D2C6844B101270F4EFFF7C7FE00B13760013CF9D12C600B4B1B68002B82D02A
:201F6000074B01241B6800F063FC7DE7180A00203C0A0020540A0020340A0020980A00206E
:201F8000FC0A00202C0A0020280A0020154B10B51A68154B12B101221A6010BD1A60134B67
:201FA0001968B1FA81F11423C1F11F014B43104AD458D01814B900F089FDFEE7446808336F
:201FC000646813449C4208BFC368446008BF4360142303FB01225368DA68064B1A601B685D
:201FE000DBE700BF180A0020280A0020340A0020980A0020FC0A002010B50C4610B900F0B6
:2020000065FDFEE7054B19681831FFF71BF92046BDE810400121FFF7CFBC00BFFC0A002072
:2020200070B50C46114610B900F050FDFEE70F4B42681D689668EA611D6800292E621D6852
:2020400005F1180575601D681B6805F1180595609862036803F10103036008BF2046BDE8F6
:20206000704018BF4FF0FF30FFF7A6BCFC0A0020F8B5C368DB6813B900F028FDFEE79A6A08
:20208000D3E9070181604860506803F11804A04208BF5160002199621168013911601E4A29
:2020A000D96A1268002A2AD1D3E902405A69A060446054681D1DAC4208BF506010680138CD
:2020C0001060012215488A4004682243026014224A43134886187468A7689C60DF607D6054
:2020E000A5605E618358013383500E4B1B68DB6A994285BF01200C4B00201860F8BD0B4AE0
:2021000050688568D8611D626C6084609A62136801331360E9E700BF180A0020340A002065
:20212000980A0020FC0A0020280A0020540A002010B5044610B900F0C9FCFEE700F084FB06
:20214000044B1B682360044B1B686360BDE8104000F088BB240A0020380A0020034B1B68EC
:202160000360034B1B684360704700BF240A0020380A002070B50D46044610B900F0A6FC45
:20218000FEE711B900F0A2FCFEE700F05DFB0F4B19682B685A1C17D00D48266800686268F5
:2021A000864208D08A4206D8002301242B6000F059FB204670BD881A8342F5D95B1A13442A
:2021C00020462B60FFF7CAFF0024F0E7380A0020240A00200122014B1A607047280A0020B2
:2021E000014B1868704700BFFC0A0020054B1B6833B1054B1868B0FA80F040094000704796
:2022000001207047300A0020180A00202DE9F041DDF818800D4617461E4610B100F056FC7F
:20222000FEE7204CFFF74CFD00F00EFB236893F86C30022B23D100F015FB0025FFF704FE25
:2022400015B108B900F0F4FA00F0FEFA16B123689B6E33602368002293F86C30022B09BF7A
:202260000125002521688B6E04BFBB438B66236883F86C2000F0F6FA2846BDE8F08122685F
:20228000936E23EA050301259366236883F86C50B8F1000FCFD000F0E5FA29464046FFF736
:2022A0008BFBCBE7FC0A0020F8B5069F044615461E4611B100F00AFCFEE710B900F006FC0D
:2022C000FEE700F0C1FA0FB1A36E3B60022394F86C2084F86C30D2B2042E37D8DFE806F02B
:2022E00006032F343200A36E2B43A366012A3BD1D4E9021263698A6051605968251DA9425B
:2023000008BF5A601A681C49013A1A600123E26A0868934003430B60142353431749CE1829
:2023200070688768A060E7607D608560C85866610130C850A36A83B100F0C8FBFEE7A36EB3
:202340000133D2E7022A14D0A566CFE70C4B1B68002BCBD000F0BAFBFEE70A4B1B68DB6A78
:202360009A4201D900F064FA012400F07BFA2046F8BD0024F9E700BF340A0020980A0020D1
:20238000380A0020FC0A00202DE9F0411546DDE906861F46044610B900F098FBFEE711B11F
:2023A00000F094FBFEE700F049FB00F08FFBB8F1000F02D0A36EC8F80030022394F86C2043
:2023C00084F86C30D2B2042F15D8DFE807F006030D121000A36E2B43A366012A48D1A36A72
:2023E00083B100F073FBFEE7A36E0133F4E7022A52D0A566F1E7294B1B68002BEDD000F046
:2024000065FBFEE7264BE26A1B68002B36D1D4E902516369A9604D605D68271DBD4208BFA4
:20242000596019680139196001231E4993400D682B430B60142353431B4901EB030CDCF803
:202440000450D5F808E0A560C4F80CE0CEF80470AF60C4F814C0CC580134CC50134B1B6897
:20246000DB6A9A4204D9012306B13360104A1360012400F036FB2046BDE8F0810D4B04F114
:20248000180559688F68E16127627D608D601968A36201311960E1E70024EAE7380A002082
:2024A000180A0020340A0020980A0020FC0A0020280A0020540A002010B5044611B100F003
:2024C00005FBFEE708B9084B1C6800F0BDF9002094F86C30022B0ABF84F86C000446012444
:2024E00000F0C0F9204610BDFC0A0020914208B5416000610AD8D21A83699A420DD2084B80
:20250000011D1868FEF79EFE002008BD9A4201D2994202D2034B011DF3E70120F5E700BF47
:20252000D40B0020D80B002070B504460D461646A1692B46324620462944FFF7D7FF00B930
:2025400070BDA36920461D44236A9847F0E7FFFF0E4B70B51B680546DB680E46DC68201DD6
:20256000FEF787FE94F828305A0709D5324629462046FFF7D9FF2046236ABDE870401847FC
:2025800023F0010384F82830F5E700BFD80B0020F8B50546FFF79CFB0D4E04463368834228
:2025A00009D90C4F3B681A6852B90B4A116813603960012300E0002320462B603460F8BD73
:2025C000DB684FF0FF311868FFF7C2FFEAE700BFC80B0020D80B0020D40B00202DE9F04344
:2025E0000026DFF838814B4F85B0D8F80030D3F80090B9F1000F37D00024DB68D3F8009079
:20260000FFF75EFB01A8FFF7C3FF019B0546002B3FD15CBB48452FD3FFF716FC294648463D
:20262000FFF796FFCDE9016603960022386801A9FEF7E6FE0028D8D0019B002BF5DB039C0E
:20264000636913B1201DFEF714FE6846FFF7A0FF019B0546013B082BE7D8DFE803F01D1D5A
:202660005340531D1D5340000124C9E72A4B1B681C68B4FA84F4640922463868A9EB050121
:20268000FEF75CFFFFF7E0FB0028CBD100F0D0F8C8E7FFF7D9FBC5E794F82830A16943F057
:2026A000010384F82830029B024619442046FFF71DFF0028B9D094F828305A070AD5A369A7
:2026C00002992A4620461944FFF72EFF2046236A9847AAE723F0010384F82830F6E794F852
:2026E000283043F0010384F828300299A16111B900F0ECF9FEE70346024601442046FFF724
:20270000F5FE92E794F8283023F0010384F828308BE700BFD00B0020D40B0020D80B002050
:20272000F7B5114C00F090F82568BDB90F4F104E3846FEF779FD3046FEF776FD0D4B0C210D
:202740001F600D4B0A201E600C4A0D4B0095FEF72FFE206010B10B49FEF7CEFE03B0BDE8E7
:20276000F04000F07FB800BFD00B0020F00B0020DC0B0020D80B0020D40B0020500B0020A9
:20278000000B0020653C000010B588B0FFF7C8FF0F4B1B68B3B1002407AA06A905A8CDE98B
:2027A0000544FDF79FFE059B079A0293069B094901930223084800932346FFF765F9074BCB
:2027C000186010B900F082F9FEE7012008B010BDD00B00206A3C0000DD250000CC0B002028
:2027E000002307B50193074B1B68013302D000F06DF9FEE700F06AF9019B002BFCD003B0B7
:202800005DF804FB0C0000204FF0E0220423136100234FF47A719361044B1B68B3FBF1F3B3
:20282000013B536107231361704700BF000000204FF0E0234FF08052C3F8042DBFF34F8FA5
:20284000BFF36F8F7047FFFF08B500F03FF9044A136801331360BFF34F8FBFF36F8F08BDB9
:202860000C00002008B5084B1A6812B900F02EF9FEE71A68013A1A60186818B9BDE808405E
:2028800000F02FB908BD00BF0C00002010B500F01DF90446FFF722FA28B14FF0E0234FF02F
:2028A0008052C3F8042D2046BDE8104000F019B908B5836913F8023C662B11D14FF0E02396
:2028C000D3F8882D42F47002C3F8882DD3F8342F42F04042C3F8342FBDE8084000F0D0B8FB
:2028E00000F0F4F8FEE7FFFF10B54FF0807440E90224184A4FF0123440F80C2C4FF0033207
:202900004FF0023C40E905244FF0013240F8203C40E9072C4FF010334FF011324FF0093406
:2029200040E90A324FF008334FF0073C40E90C344FF006334FF0053240E90E3C4FF00433F6
:2029400040E910326FF0020340F8443C40F8481D10BD00BFE12700004FF0E023D3F8082D7D
:2029600013B5D06A3049884202D000F0AFF8FEE7916B2E4A914202D000F0A8F8FEE7002214
:2029800001924FF07F42C3F81C2DD3F81C3D284A1B0E8DF803309DF8033003F040031370A8
:2029A00013B900F093F8FEE79DF803305B060AD400F08CF8FEE7013301939DF803305B00A0
:2029C000DBB28DF803309DF8033013F0800F019BF1D1082B0CBF0023019B164A18BFC3F152
:2029E00007031B0203F4E06313604FF0E0230024D3F8202D42F47F02C3F8202DD3F8202DAE
:202A000042F07F42C3F8202DC3F81C4DFFF7FCFE094B1C6000F04AF8FFF7B8FAFFF7E0FE29
:202A2000204602B010BD00BF4D2B0000F12A0000080C0020040C00200C00002008B5EFF330
:202A400005830F2B08D90B4A9B5C0B4A12789A4202D900F03BF8FEE74FF0E023074AD3F88B
:202A60000C3D126803F4E063934202D900F02EF8FEE708BDF0E300E0080C0020040C0020D2
:202A8000094A1168086806C881F30B88022181F31488203080F30988BFF36F8F4FF00000AF
:202AA00080F3118810470000FC0A002006480068006880F3088862B661B6BFF34F8FBFF3FB
:202AC0006F8F66DF00BF000008ED00E0EFF311804FF0400181F31188BFF34F8FBFF36F8FDF
:202AE000704780F31188BFF34F8FBFF36F8F7047EFF309801EF0100F08BF20ED108AEFF334
:202B00000B82734620E9FC0F0F4A116808604FF0400080F31188BFF34F8FBFF36F8FFFF760
:202B200035FA4FF0000080F31188074A11680868B0E8FC0F13F0100F08BFB0EC108A82F3AA
:202B40000B8880F309881847FC0A00201EF0040F0CBFEFF30880EFF30980014908470000FF
:202B6000B128000010B5082897BF054B012003EBC00443F830109CBF6260002010BD00BFCA
:202B80000C0C0020082838B504460D460CD800F0D7F8064B1B68984206D245EA0440002186
:202BA000BDE8384000F0CEB8012038BD4C3D000038B5C4B2022C0D4609D0032C05D0012CF5
:202BC00004D189880420FFF7DDFF2C7038BDC988F8E70A780B46012A02D0022A06D07047CF
:202BE0004860022105201970FFF7CCBF4A6842EA00424A600321F5E7082838B504460D4657
:202C00000CD800F09DF8064B1B68984206D245EA04400121BDE8384000F094B8012038BDC1
:202C20004C3D000008B500F08BF8054B1B68984203D2BDE8084000F047B8012008BD00BFD8
:202C40004C3D000010B500F07BF80C4A1268904212D2B0FA80F30A490A4A01EBC0045B0965
:202C60005462094C01EBC301084B1462BDE81040D162936200F03CB8012010BD4C3D000058
:202C8000540C00200C0C0020D32B0000B12B000070B51D460A4B04461B6898420DD2094EE8
:202CA00006EBC0035A6000F02FF830B925B916F83430032BFBD1002070BD0120FCE700BF4C
:202CC0004C3D0000540C0020012808B50ED84FF080434FF000421F20C3F82022FEF7FDF975
:202CE000BDE8084000210120FFF74CBF012008BDA022044B83F836234FF480025A6000203A
:202D0000704700BF00E100E0012813D14FF0804321F07F01C3F80418D3F8002806490020A3
:202D20001143C3F80018054922F028021143C3F800187047012070472800C4C00800C4C0F4
:202D400000207047034B11B91A69002AFCD158610020704700200B400C4B10B4186890B133
:202D60009860030C5A1ED2B2072A0CD8084ADBB252F833403CB102EBC3025168234680B2AC
:202D80005DF8044B18475DF8044B704700200B400C0C002008B5FDF7CBFA08BD08B5FDF746
:202DA000C7FA08BD08B5FDF7C3FA08BD08B5FDF7BFFA08BD08B5FDF7BBFA08BD08B5FDF74F
:202DC000B7FA08BD08B5FDF7B3FA08BD08B5FDF7AFFA08BD08B5FDF7ABFA08BD08B5FDF76F
:202DE000A7FA08BD08B5FDF7A3FA08BD08B5FDF79FFA08BD08B5FDF79BFA08BD08B5FDF78F
:202E000097FA08BD08B5FDF793FA08BD08B5FDF78FFA08BD08B5FDF78BFA08BD08B5FDF7AE
:202E200087FA08BD08B5FDF783FA08BD08B5FDF77FFA08BD08B5FDF77BFA08BD08B5FDF7CE
:202E400077FA08BD08B5FDF773FA08BD08B5FDF76FFA08BD08B5FDF76BFA08BD08B5FDF7EE
:202E600067FA08BD08B5FDF763FA08BD08B5FDF75FFA08BD08B5FDF75BFA08BD08B5FDF70E
:202E800057FA08BD08B5FDF753FA08BD08B5FDF74FFA08BD08B5FDF74BFA08BD08B5FDF72E
:202EA00047FA08BD08B5FDF743FA08BD08B5FDF70FFF08BD08B5FDF70EFF08BD08B5FDF7A1
:202EC0000DFF08BD08B5FDF70CFF08BD08B5FDF70BFF08BD08B5FDF70AFF08BD08B5FDF7F0
:202EE00009FF08BD08B5FDF708FF08BD08B5FDF707FF08BD08B5FDF706FF08BD08B5FDF7E0
:202F000017FA08BD08B5FDF713FA08BD08B5FDF70FFA08BD08B5FDF70BFA08BD08B5FDF7AD
:202F200007FA08BD08B5FDF703FA08BD08B5FDF7FFF908BD08B5FDF7FBF908BD08B5FDF7CF
:202F4000F7F908BD08B5FDF7F3F908BD08B5FDF7EFF908BD08B5FDF7EBF908BD08B5FDF7F1
:202F6000E7F908BD08B5FDF7E3F908BD08B5FDF7DFF908BD08B5FDF7DBF908BD08B5FDF711
:202F8000D7F908BD08B5FDF7D3F908BD08B5FDF7CFF908BD08B5FDF7CBF908BD08B5FDF731
:202FA000C7F908BD08B5FDF7C3F908BD08B5FDF7BFF908BD08B5FDF7BBF908BD08B5FDF751
:202FC000B7F908BD08B5FDF7B3F908BD08B5FDF7AFF908BD08B5FDF7ABF908BD08B5FDF771
:202FE000A7F908BD08B5FDF7A3F908BD08B5FDF79FF908BD08B5FDF79BF908BD08B5FDF791
:2030000097F908BD08B5FDF793F908BD08B5FDF78FF908BD08B5FDF78BF908BD08B5FDF7B0
:2030200087F908BD08B5FDF783F908BD08B5FDF77FF908BD08B5FDF77BF908BD08B5FDF7D0
:2030400077F908BD08B5FDF773F908BD08B5FDF76FF908BD08B5FDF76BF908BD08B5FDF7F0
:2030600067F908BD08B5FDF763F908BD08B5FDF75FF908BD08B5FDF75BF908BD08B5FDF710
:2030800057F908BD08B5FDF753F908BD08B5FDF74FF908BD08B5FDF74BF908BD08B5FDF730
:2030A00047F908BD08B5FDF743F908BD08B5FDF73FF908BD08B5FDF73BF908BD08B5FDF750
:2030C00037F908BD08B5FDF733F908BD08B5FDF72FF908BD08B5FDF72BF908BD08B5FDF770
:2030E00027F908BD08B5FDF723F908BD08B5FDF71FF908BD08B5FDF71BF908BD08B5FDF790
:2031000017F908BD08B5FDF713F908BD08B5FDF70FF908BD08B5FDF70BF908BD08B5FDF7AF
:2031200007F908BD08B5FDF703F908BD08B5FDF7FFF808BD08B5FDF7FBF808BD08B5FDF7D1
:20314000F7F808BD08B5FDF7F3F808BD08B5FDF7EFF808BD08B5FDF7EBF808BD08B5FDF7F3
:20316000E7F808BD08B5FDF7E3F808BD08B5FDF7DFF808BD08B5FDF7DBF808BD08B5FDF713
:20318000D7F808BD08B5FDF7D3F808BD08B5FDF7CFF808BD08B5FDF7CBF808BD08B5FDF733
:2031A000C7F808BD08B5FDF7C3F808BD08B5FDF7BFF808BD08B5FDF7BBF808BD08B5FDF753
:2031C000B7F808BD08B5FDF7B3F808BD08B5FDF7AFF808BD08B5FDF7ABF808BD08B5FDF773
:2031E000A7F808BD08B5FDF7A3F808BD08B5FDF79FF808BD08B5FDF79BF808BD08B5FDF793
:2032000097F808BD08B5FDF793F808BD08B5FDF78FF808BD08B5FDF78BF808BD08B5FDF7B2
:2032200087F808BD08B5FDF783F808BD08B5FDF77FF808BD08B5FDF77BF808BD08B5FDF7D2
:2032400077F808BD08B5FDF773F808BD08B5FDF76FF808BD08B5FDF76BF808BD08B5FDF7F2
:2032600067F808BD08B5FDF763F808BD70B5002404700C68ACB1002B14BF41256125411C84
:203280000A3D2646B4FBF2F402FB1463092B94BF30335B19B24201F8013BF2D9081A0138C5
:2032A00002E030234370012070BDFFFF30B5012A87B019D100240D4DCDE901310C4B8DF867
:2032C000120001A9284603932A74ADF810408DF813408DF81440FDF703FA2046054BAB6038
:2032E000054BEB6007B030BD0120FBE7640C0020000001019D0700007D07000007B5019085
:203300000648037C3BB10122836801A99847012003B05DF804FB4FF0FF30F9E7640C002057
:203320002DE9F04F744B80461B7C0C468FB0002B00F0C98000254FF0010AAB462E460395BB
:2033400098F80000002800F0C08025282ED0FFF7D5FF08F101080135F2E70A20904600FB64
:203360000911A1F1300998F8011008F10102A1F130000928F1D92E2905D1904612F8011FE1
:2033800030390929F9D998F80170782F0CD8632F0FD86AD0A7F14602D2B21C2A04D857495B
:2033A00041FA02F2D2073AD5384660E04FF00009D9E7A7F16402524BD2B20AFA02F21A42BD
:2033C00040F08780732F56D0D307EDD554F8043B0A22029302A9012305A8FFF747FF834685
:2033E00005AB1E18702F20D01DD8622F28D06F2F26D05F46B9452FDCA9EB0B02D945B8BF62
:203400000022154446B1374632461078164602F1FF3930BB2F44BD1A08F1020890E7582F00
:20342000E0D101235BE0752FE2E754F8043B042204A903A8049300F0A1FB1022012352E05B
:2034400054F8043B6F2F039302D003D90A22F5E70822F3E70222F1E72020FFF74FFF01373B
:20346000C8E7FFF74BFF4A46CFE754F8040BFFF745FF0135D0E754F8047B002FCCD0384681
:2034800000F089FB8346024691450FDCA9EB0B02CB45C8BF002202EB05093D462A4612F894
:2034A000010B50B9A9EB07021544B5E720200192FFF724FF019A0132E6E70192FFF71EFF38
:2034C000019A1546EAE74FF0FF3528460FB0BDE8F08F692F3FF47AAF782F83D1002354F803
:2034E000042B0392102203A905A8FFF7BFFE05AB83461E187DE700BF640C0020FEFFFBEF81
:20350000241812000FB407B504A951F8040B0191FFF706FF03B05DF804EB04B07047FFFFEC
:20352000D0B500F0ABFA00220B4B06460F4600F017F800F0FBFA044600F07EFA0022074B4E
:2035400000F00EF802460B463046394600F036F900F0ECFA2146D0BD0000F03D0000F041A0
:2035600070B54FF0FF0C4CF4E06C1CEA11541DBF1CEA135594EA0C0F95EA0C0F00F0DEF8A2
:203580002C4481EA030621EA4C5123EA4C5350EA013518BF52EA033541F4801143F48013A8
:2035A00038D0A0FB02CE4FF00005E1FB02E506F00042E0FB03E54FF00006E1FB03569CF090
:2035C000000F18BF4EF0010EA4F1FF04B6F5007F64F5407404D25FEA4E0E6D4146EB060683
:2035E00042EAC62141EA55514FEAC52040EA5E504FEACE2EB4F1FD0C88BFBCF5E06F1ED8D1
:20360000BEF1004F08BF5FEA500E50F1000041EB045170BD06F0004646EA010140EA0200B5
:2036200081EA0301B4EB5C04C2BFD4EB0C0541EA045170BD41F480114FF0000E013C00F3DB
:20364000AB8014F1360FDEBF002001F0004170BDC4F10004203C35DA0C341BDC04F1140471
:20366000C4F1200500FA05F320FA04F001FA05F240EA020001F0004221F0004110EBD3708F
:2036800021FA04F642EB06015EEA430E08BF20EAD37070BDC4F10C04C4F1200500FA04F377
:2036A00020FA05F001FA04F240EA020001F0004110EBD37041F100015EEA430E08BF20EAD1
:2036C000D37070BDC4F1200500FA05F24EEA020E20FA04F301FA05F243EA020321FA04F023
:2036E00001F0004121FA04F220EA020000EBD3705EEA430E08BF20EAD37070BD94F0000FE0
:203700000FD101F00046400041EB010111F4801F08BF013CF7D041EA060195F0000F18BF18
:20372000704703F00046520043EB030313F4801F08BF013DF7D043EA0603704794EA0C0F1B
:203740000CEA135518BF95EA0C0F0CD050EA410618BF52EA4306D1D181EA030101F000419E
:203760004FF0000070BD50EA410606BF1046194652EA430619D094EA0C0F02D150EA013697
:2037800013D195EA0C0F05D152EA03361CBF104619460AD181EA030101F0004141F0FE41E4
:2037A00041F470014FF0000070BD41F0FE4141F4780170BD81F0004102E000BF83F00043A3
:2037C00030B54FEA41044FEA430594EA050F08BF90EA020F1FBF54EA000C55EA020C7FEA43
:2037E000645C7FEA655C00F0E2804FEA5454D4EB5555B8BF6D420CDD2C4480EA020281EAEB
:20380000030382EA000083EA010180EA020281EA0303362D88BF30BD11F0004F4FEA013196
:203820004FF4801C4CEA113102D0404261EB410113F0004F4FEA03334CEA133302D05242AC
:2038400063EB430394EA050F00F0A780A4F10104D5F1200E0DDB02FA0EFC22FA05F2801804
:2038600041F1000103FA0EF2801843FA05F359410EE0A5F120050EF1200E012A03FA0EFCA9
:2038800028BF4CF0020C43FA05F3C01851EBE37101F0004507D54FF0000EDCF1000C7EEBB9
:2038A00000006EEB0101B1F5801F1BD3B1F5001F0CD349085FEA30004FEA3C0C04F1010491
:2038C0004FEA445212F5800F80F09A80BCF1004F08BF5FEA500C50F1000041EB045141EAA4
:2038E000050130BD5FEA4C0C404141EB0101013C28BFB1F5801FE9D291F0000F04BF0146C7
:203900000020B1FA81F308BF2033A3F10B03B3F120020CDA0C3208DD02F1140CC2F10C0209
:2039200001FA0CF021FA02F10CE002F11402D8BFC2F1200C01FA02F120FA0CFCDCBF41EA41
:203940000C019040E41AA2BF01EB0451294330BD6FEA04041F3C1CDA0C340EDC04F11404A8
:20396000C4F1200220FA04F001FA02F340EA030021FA04F345EA030130BDC4F10C04C4F199
:20398000200220FA02F001FA04F340EA0300294630BD21FA04F0294630BD94F0000F83F409
:2039A000801306BF81F480110134013D4EE77FEA645C18BF7FEA655C29D094EA050F08BF85
:2039C00090EA020F05D054EA000C04BF1946104630BD91EA030F1EBF0021002030BD5FEAF7
:2039E000545C05D14000494128BF41F0004130BD14F580043CBF01F5801130BD01F00045FF
:203A000045F0FE4141F470014FF0000030BD7FEA645C1ABF194610467FEA655C1CBF0B4653
:203A2000024650EA013406BF52EA033591EA030F41F4002130BD00BF90F0000F04BF002194
:203A4000704730B54FF4806404F132044FF000054FF0000150E700BF90F0000F04BF00218B
:203A6000704730B54FF4806404F1320410F0004548BF40424FF000013EE700BF42004FEAEB
:203A8000E2014FEA31014FEA02701FBF12F07F4393F07F4F81F06051704732F07F4208BFB7
:203AA000704793F07F4F04BF41F40021704730B54FF4607401F0004521F000411CE700BFE8
:203AC00050EA010208BF704730B54FF000050AE050EA010208BF704730B511F0004502D55B
:203AE000404261EB41014FF4806404F132045FEA915C3FF4D8AE4FF003025FEADC0C18BF29
:203B000003325FEADC0C18BF033202EBDC02C2F1200300FA03FC20FA02F001FA03FE40EA67
:203B20000E0021FA02F11444BDE600BF4A0011D212F5001211D20DD56FF47873B3EB625204
:203B40000ED44FEAC12343F0004343EA505323FA02F070474FF00000704750EA013002D126
:203B60004FF0FF3070474FF00000704702440346934200D1704703F8011BF9E70A44431E98
:203B8000914200D1704710B511F8014B914203F8014FF9D110BD034613F8012B002AFBD185
:203BA000181A013870475072696D61727920636F72652072656365697665642061206D734E
:203BC000670D0A004D6573736167653A2053697A653D25782C2044415441203D2025690D55
:203BE0000A000D0A4672656552544F53204D65737361676520427566666572732064656DB2
:203C00006F20656E64730D0A000D0A4672656552544F53204D6573736167652042756666EB
:203C20006572732064656D6F207374617274730D0A004150505F5441534B004661696C6549
:203C40006420746F207374617274204672656552544F53206F6E20636F7265302E0D0A008A
:203C600049444C4500546D725100546D7220537663004D61696E005365636F6E64617279F6
:203C800000010101020101030203010301020202010201FF0020094000300940004009409C
:203CA0000050094000400B4000500B4000600B4000700B4000800B4000900B400B0001002D
:203CC0000C0001000D0001000E0001000F0001001000010011000100120001001300010060
:203CE000140001000B010C010D010E010F0110011101120113011401002009400030094028
:203D0000004009400050094000400B4000500B4000600B4000700B4000800B4000900B404F
:203D20000020094000300940004009400050094000400B4000500B4000600B4000700B40F3
:203D400000800B4000900B40040000000200000002000000583D000003000000723C00006F
:203D600003000000773C0000F8B500BFF8B500BF26FEFF7F01000000006CDC020080000048
:083D80000024F400AAAAAAAA7B
:020000042004D6
:20E000000080062011E30420D9E2042017E50420DDE20420DFE20420E1E20420E3E20420AB
:20E0200000000000000000000000000031000520E7E2042000000000E9FF0420A1FD0420CF
:20E040006D020520750205207D020520850205208D020520950205209D020520A502052040
:20E06000AD020520B5020520BD020520C5020520CD020520D5020520DD020520E502052020
:20E08000ED020520F5020520FD020520050305200D030520150305201D03052025030520FB
:20E0A0002D030520350305203D030520450305204D030520550305205D03052065030520D8
:20E0C0006D030520750305207D030520850305208D030520950305209D030520A5030520B8
:20E0E000AD030520B5030520BD030520C5030520CD030520D5030520DD030520E503052098
:20E10000ED030520F5030520FD030520050405200D04052015040520350205201D04052064
:20E12000250405202D040520350405203D040520450405204D040520550405205D0405208F
:20E14000650405206D040520750405207D040520850405208D040520950405209D0405206F
:20E16000A5040520AD040520B5040520BD040520C5040520CD040520D5040520DD0405204F
:20E18000E5040520ED040520F5040520FD040520050505200D050520150505201D0505202B
:20E1A000250505202D050520350505203D050520450505204D050520550505205D05052007
:20E1C000650505206D050520750505207D050520850505208D050520950505209D050520E7
:20E1E000A5050520AD050520B5050520BD050520C5050520CD050520D5050520DD050520C7
:20E20000E5050520ED050520F5050520FD050520050605200D060520150605201D060520A2
:20E22000250605202D060520350605203D060520450605204D060520550605205D0605207E
:20E24000650605206D060520750605207D060520850605208D060520950605209D0605205E
:20E26000A5060520AD060520B5060520BD060520C5060520CD060520D5060520DD0605203E
:20E28000E5060520ED060520F5060520FD060520050705200D070520150705201D0705201A
:20E2A000250705202D070520350705203D070520180B0520180B052008000000180B05200A
:20E2C00000C0042000000000200B0520640C000000C0042000000000FEE7FEE7FEE7FEE722
:20E2E000FEE7FEE7FEE7FEE7FEE7FEE7FEE7002310B5934200D310BD1C585C500433F8E748
:20E3000000231A468B4200D370471A500433F9E772B6124B124A16480360196881F308887B
:20E3200082F30A8800F012F90E4C0F4DAC4206D30E4DAC420AD362B600F0B0F8FEE7D4E9E6
:20E340000001A2680C34FFF7D2FFEFE754F8080B54F8041CFFF7D4FFEBE700BF00E00420AC
:20E3600000700620B0E20420C8E20420D8E2042008ED00E000212DE9F041264C86B004F1CB
:20E38000A003009301221820CDE9011104F5007300F030FC60602048261D02F0F7FA05A8A1
:20E3A00001F0E8FE02460028F9D11C49082001F04BFE0121072001F057FE194D194FDFF851
:20E3C00068802B68642B0ED9184802F0DFFA306800F045FD0028FAD0606800F048FC14480D
:20E3E00002F0D4FAFEE7384602F0D0FA294604224FF0FF33206800F0D4FC2B6840460133A3
:20E400002B6002F0C3FA002304222946306800F056FCD6E700C00420E009052035E4042044
:20E42000A01305200F0A0520250A0520370A05205B0A0520002307B5012801930CD1084BB6
:20E4400001A9186800F016FD019B2BB14FF0E0234FF08052C3F8042D03B05DF804FB00BF12
:20E4600000C00420034B0360034B0B605A231360704700BFC80F0520600E0520034B0360A8
:20E48000034B0B60B4231360704700BFF00D0520200B05200121082001F020BE1FB500F0B4
:20E4A0001FF801F041FE094BBE220293084B09490193012308480093002300F06FFD00F09D
:20E4C00045FE064802F062FAFEE700BF3013052038100520700A052075E30420790A052021
:20E4E0004FF080434FF48002C3F8202200F011B801F00ABE4FF080434FF48032C3F82022F2
:20E500004FF4805203F58C1303F58053A3F890207047FFF7EFBF04207146084202D0EFF305
:20E52000098001E0EFF3088081690A884BF6AB639A4200D0FEE7023181610168012901D032
:20E54000002100E0202101607047FFFF304A08B5D2F88830002043F00F03C2F88830D2F809
:20E560008C3043F4406343F00303C2F88C304FF08043C3F8440ED3F8001421F40031C3F867
:20E58000001424499160D3F8242822F00102C3F82428214A936A23F4402343F400239362A5
:20E5A000D36A23F4402343F40023D3621B4BD3F8001141F48051C3F80011D3F8441121F4CC
:20E5C0008031C3F844113C21C3F84411D3F8441141F48031C3F84411916A21F0030141F0B6
:20E5E00002019162D16A21F0030141F00201D162A2F50052906002F580529060D3F80023EE
:20E6000042F08072C3F80023FFF772FF08BD00BF00ED00E000E00420006002400050044006
:20E62000184B70B553F820300446D3F8F45F15F0300F09D0144B00F11E0253F822301BB159
:20E64000124951F822109847AA070AD00E4B04F10A0253F8223023B10C49204651F8221079
:20E6600098476B070CD5084B04F1140253F8223033B106492046BDE8704051F822101847A5
:20E6800070BD00BFC00A052044140520A41305200020FFF7C5BF0120FFF7C2BF0220FFF7FC
:20E6A000BFBF0320FFF7BCBF0420FFF7B9BF0520FFF7B6BF0620FFF7B3BF0720FFF7B0BF0C
:20E6C0000820FFF7ADBF0920FFF7AABF01224FF08041030C80B2824003F148009B000B44DC
:20E6E00041F8202003F5807319681142FCD0704701224FF08041030C80B2824003F15000F5
:20E700009B000B4441F8202003F58073196832EA0101FBD0704710B50446FFF7D7FF204649
:20E72000BDE81040FFF7E4BF4FF0FF3200F10803C0E90223436003610023036070470023AA
:20E740000361704730B50C68631C0AD103695A684A6091608B605960036808610133036013
:20E7600030BD00F10802134652681568A542FAD9EDE70369D0E901128A605160596881423C
:20E7800008BF5A6000220261186801381860704710B5044601F0E2FAA46B01F0EDFAB4FA1A
:20E7A00084F0400910BD03461A6C084610B462B1DC68996814448C4228BF1968DC6028BFE5
:20E7C000D960D96810BC02F0F6B810BC704770B5044601F0C3FA94F8455004F124066DB254
:20E7E000002D01DD636AB3B9FF2384F8453001F0C3FA01F0B3FA94F8445004F110066DB22C
:20E80000002D01DD23697BB9FF2384F84430BDE8704001F0B1BA304600F0B4FE08B100F0A9
:20E8200063FF013D6DB2DBE7304600F0ABFE08B100F05AFF013D6DB2E2E770B50E4604465D
:20E8400010B901F0BFFBFEE7C56B65B3036CA3FB053545BB01F082FAD4E90F314B4322684E
:20E86000A563D0185B1A62601A44FF23A06084F84430E26084F8453066B9236933B104F14A
:20E88000100000F07FFE08B101F05CFA01F074FA012070BD04F11000FFF746FF04F12400F5
:20E8A000FFF742FFF2E701F08DFBFEE713B51C4613B901F087FBFEE708B11AB121B901F04D
:20E8C00081FBFEE70029FAD150230193019B502B02D001F077FBFEE7002908BF2246C4E9A6
:20E8E0000F01226001212046019BFFF7A6FF20469DF8103084F84C3002B010BD2DE9FF41BF
:20E900000E460446019210B901F05CFBFEE721B9036C13B101F056FBFEE700F0F1FE054672
:20E92000D8B100254FF0000801F018FAA76BD7B131462046FFF737FF2369013FA76333B182
:20E9400004F1100000F01EFE08B101F0FBF901F013FA012004B0BDE8F081019B002BE1D0A7
:20E9600001F030FBFEE7019B1BB901F005FA0020F0E715B902A800F07BFE01F0FDF900F087
:20E9800029FC01F0EBF994F84430FF2B08BF84F8448094F84530FF2B08BF84F8458001F028
:20E9A000EBF901A902A800F06FFEC0B92046FFF7EFFE70B1019904F1240000F0A7FD204632
:20E9C000FFF705FF00F0CAFC08B901F0BBF90125AAE72046FFF7FBFE00F0C0FCF7E7204625
:20E9E000FFF7F5FE00F0BAFC2046FFF7D1FE0028EDD0BCE770B510B901F0E4FAFEE7B9B1C9
:20EA000000230C4A1C4615465668864204D105EBC403C3E900100BE01BB91668002E08BFC0
:20EA200013460134082C02F10802EDD1002BF0D170BD00BFE414052070B504460D46164646
:20EA400001F08CF994F84430FF2B04BF002384F8443094F84530FF2B04BF002384F845303E
:20EA600001F08AF9A36B2BB93246294604F1240000F060FD2046BDE87040FFF7A8BE8268E2
:20EA8000436800681344181A824298BF801A70472DE9F0411C46836817461E1B964228BF85
:20EAA0001646A21993420546884602D201F08AFAFEE780693246204401F07DFFB7420BD914
:20EAC000AB68BA1B9A4202D901F07CFAFEE7A86908EB060101F06FFFAB68E019984228BF14
:20EAE000C01ABDE8F08173B50E46017F1446C9071A460546436813D5069901948A4213D3DC
:20EB000004220DEB0201FFF7C3FF03462CB1224631462846FFF7BCFF6860204602B070BDEB
:20EB2000944228BF1446F1E70024F6E72DE9F0411C46836817461D1B954228BF1546621928
:20EB400093420646884602D201F03CFAFEE781692A464046214401F02EFFAF4205D9B1699A
:20EB60007A1B08EB050001F026FFB368E019984228BFC01ABDE8F081F7B51646027F1C4642
:20EB8000D20705460F4603680BD504220DEB0201FFF7CCFF019A034696422CBF16460026A6
:20EBA000043CB44228BF34462CB1224639462846FFF7BCFF2860204603B0F0BDF8B50D468D
:20EBC00004465521284617461E4601F0ECFE854202D001F0F7F9FEE728220021204601F04A
:20EBE000E2FE9DF81830C4E9027623770023A5616362F8BD30B585B00446089D0846194640
:20EC000013B901F0DFF9FEE715B901F0DBF9FEE7A04202D901F0D6F9FEE7012A04D1042C70
:20EC200008D801F0CFF9FEE7022A0CD16CB901F0C9F9FEE7032328220392039A282A06D0C6
:20EC400001F0C0F9FEE70223F5E70623F3E7012800932246034638BF01232846FFF7AEFF88
:20EC600028462B7F43F002032B7705B030BD08B5034610B901F0A6F9FEE7027F920704D4CA
:20EC8000013308D001F09EF9FEE72822BDE80840002101F088BE08BD38B510B901F092F975
:20ECA000FEE782680568036841680468A542F9D1D0180138401A824298BF801A38BD2DE9AC
:20ECC000F04387B0044616468946039311B901F079F9FEE710B901F075F9FEE7027F836834
:20ECE000D20703F1FF3323D5371DBE4202D301F069F9FEE7BB421FD2002303932046FFF7B9
:20ED0000CBFF05462B463246494620460097FFF7EAFE054640B12046FFF7B1FEE36898421F
:20ED200002D32046FFF7B6FB284607B0BDE8F083B34228BF33461F46039B002BDED004A8D7
:20ED400000F080FC01F00AF82046FFF7A5FF8742054623D90020616A00F038FED4F81480D3
:20ED6000B8F1000F02D001F02DF9FEE700F0C2FC606101F001F8039B4146009342464346EB
:20ED8000606A00F0CDFCC4F8148003A904A800F07BFC0028D6D0002DB0D0B3E700F0ECFFF1
:20EDA000F9E72DE9F7430446904699460F4611B901F008F9FEE710B901F004F9FEE7067F0D
:20EDC000F30728D416F0040600D0C668B9F1000F3AD000F0C3FF2046FFF751FE86420546FC
:20EDE0001BD200F0C9FF2B46424639462046FFF7C3FE054670B300F0EDF9636943B10026AF
:20EE00006069009633463246616A00F0D7FC666100F0A4FA1FE00426D8E70020616A00F0FC
:20EE2000D5FD256915B101F0CDF8FEE700F062FC206100F0A1FFCDF800902B462A4629460D
:20EE4000606A00F06DFC25612046FFF718FEB0420546C8D80025284603B0BDE8F08308B59F
:20EE600010B901F0AFF8FEE703684068C31A5842584108BD2DE9F3418846044610B901F048
:20EE8000A1F8FEE701F09EF82569074600264DB101252069CDE9006833463246616A00F0F5
:20EEA000FDFC2661384601F098F8284602B0BDE8F081FFFF08B5044C2368012B00D8FEE71E
:20EEC00000F040FFF8E700BFA41505202DE9F843224B234C1D68234B0646D3F80080224B63
:20EEE0000F46D3F8009020680430FFF742FC40B922681E49D06A01220B68824023EA0203E4
:20EF00000B60731C14D19FB1194B21685A688A6090682168C8602168043141602168043163
:20EF20009160226853611A6801321A60BDE8F88323682168AD195D6001F1040104D3484660
:20EF4000BDE8F843FFF7FEBB4046FFF7FBFB094B1A68AA4288BF1D60E8E700BF441505201E
:20EF6000081605207815052074150520401505204C15052028150520064A13681968064BEF
:20EF800019B94FF0FF321A6070471268D2681268F9E700BF78150520281505202DE9F347CD
:20EFA0000C9C0746DDE90A9A0E4615469846BAF1000F02D101F006F8FEE714B901F002F84C
:20EFC000FEE770230193019A9A4202D000F0FAFFFEE70021AD002046019B01F0E4FC2A46FD
:20EFE000A5215046C4F830A001F0DDFC236B043D1D4425F0070525646EB1731E04F13302AB
:20F00000093613F8011F02F8011F09B1B342F8D1002384F83D30B9F1040F02D900F0D2FF8F
:20F02000FEE7261D3046C4F82C90C4F84C90FFF786FB04F11800FFF782FBC9F105014346E2
:20F040003A462846A1612461216B646200F0C8FE206000F083FE314B314F1A68DFF8C480A9
:20F0600001321A603D68002D4CD13C601B68012B1CD1C14648460135FFF756FB052D09F17E
:20F080001409F7D1DFF8A090284D4846FFF74CFB2846FFF749FB2648FFF746FB2548FFF794
:20F0A00043FB254BC3F80090244B1D60244A2549136808680133136001226364E36A9A40EC
:20F0C00002430A601422534308EB03014A689068A260E0604660966058F8032061610132CE
:20F0E00048F8032000F048FE174B1B6833B13B68DA6AE36A9A4201D200F024FE204602B0A1
:20F10000BDE8F087104B1A68E36A002ACED13A68D26A9A4298BF3C60C8E700BF4815052043
:20F1200008160520A4150520901505207C150520601505204C1505207815052074150520AE
:20F140002C150520401505203C15052030B58BB007AB1D46194A12F8014B03F8014B002CF8
:20F16000F9D106AA05A904A8CDE90444FFF77AF9049B29460293059B069ACDE90043104820
:20F180002346FFF70BFF80B100F088FD012805460FD100F017FF4FF0FF320A4B1A600A4B72
:20F1A0001D600A4B1C6000F053FE094B1B680BB030BD0135F9D100F005FFFEE79E0A05209B
:20F1C000B5EE0420281505203C15052044150520E80A0520024A136801331360704700BF17
:20F1E00024150520014B1868704700BF441505202DE9F84F4E4B1B68002B40F092804D4B73
:20F200001C6801341C608CB94B4B1A68126812B100F0D8FEFEE7494A1968106818601160FF
:20F22000474A136801331360FFF7A6FE454D00202B689C4206D2444B1B68002B18BF012051
:20F24000BDE8F88F84463C4F404E41493B681B681BB94FF0FF332B60EDE73B68DB68DB6822
:20F260005A68944201D22A60E5E7D3F81480D3E90229C2F80890C9F80420D8F8042003F168
:20F28000040E7245D8F8002008BFC8F80490013AC3F814C0C8F80020D3F82880B8F1000FC5
:20F2A00014D0D3E90729C2F80890C9F80420D8F8042003F1180A5245D8F8002008BFC8F82F
:20F2C0000490013AC3F828C0C8F800204FF00108DA6AD6F8009008FA02F848EA0908C6F8F5
:20F2E00000804FF0140808FB02F801EB080ADAF80490D9F808B0C3F80890C3F80CB0CBF8BC
:20F3000004E0C9F808E0C3F814A051F80830013341F808300F4B1B68DB6A9A4288BF012065
:20F3200094E70D4A002013680133136088E700BF241505204415052078150520741505204F
:20F3400030150520281505203415052040150520A415052008160520381505202DE9F84F09
:20F3600000F0FCFC464B1A6812B900F02BFEFEE71A68013A1A601B682BB1002400F0FCFC27
:20F380002046BDE8F88F3F4A1268002AF5D0012514263D483D4C3E4A3E4FDFF8FCC053E0A0
:20F3A000C368DB68D3F828E0D3E90718C1F80880C8F80410DEF8041003F1180949454FF050
:20F3C000000108BFCEF804809962DEF800100139CEF80010D3F814E0D3E90218C1F8088054
:20F3E000C8F80410DEF8041003F104094945DEF8001008BFCEF804800139CEF80010D3F8EE
:20F400002CE0D4F8008005FA0EF141EA080106FB0EF802EB080A2160DAF80410D1F808B074
:20F420009960C3F80CB0CBF80490C1F8089052F80810C3F814A0013142F808103968C96A8B
:20F440008E4501D9CCF8005001680029A8D10BB1FFF792FD114D2C6844B101270E4EFFF73E
:20F46000C7FE00B13760013CF9D12C600A4B1B68002B82D0074B01241B6800F063FC7DE7EA
:20F4800024150520481505206015052040150520A415052008160520341505203815052077
:20F4A000154B10B51A68154B12B101221A6010BD1A60134B1968B1FA81F11423C1F11F0199
:20F4C0004B43104AD458D01814B900F07BFDFEE744680833646813449C4208BFC368446098
:20F4E00008BF4360142303FB01225368DA68064B1A601B68DBE700BF2415052034150520B2
:20F5000040150520A41505200816052010B50C4610B900F057FDFEE7054B19681831FFF737
:20F5200011F92046BDE810400121FFF7CFBC00BF0816052070B50C46114610B900F042FDFB
:20F54000FEE70F4B42681D689668EA611D6800292E621D6805F1180575601D681B6805F14B
:20F56000180595609862036803F10103036008BF2046BDE8704018BF4FF0FF30FFF7A6BC9A
:20F5800008160520F8B5C368DB6813B900F01AFDFEE79A6AD3E9070181604860506803F158
:20F5A0001804A04208BF5160002199621168013911601E4AD96A1268002A2AD1D3E902404D
:20F5C0005A69A060446054681D1DAC4208BF5060106801381060012215488A40046822432D
:20F5E000026014224A43134886187468A7689C60DF607D60A5605E618358013383500E4BEB
:20F600001B68DB6A994285BF01200C4B00201860F8BD0B4A50688568D8611D626C608460DC
:20F620009A62136801331360E9E700BF2415052040150520A41505200816052034150520B6
:20F640006015052010B5044610B900F0BBFCFEE700F084FB044B1B682360044B1B68636053
:20F66000BDE8104000F088BB3015052044150520034B1B680360034B1B684360704700BF5C
:20F68000301505204415052070B50D46044610B900F098FCFEE711B900F094FCFEE700F06F
:20F6A0005DFB0F4B19682B685A1C17D00D48266800686268864208D08A4206D80023012480
:20F6C0002B6000F059FB204670BD881A8342F5D95B1A134420462B60FFF7CAFF0024F0E71C
:20F6E00044150520301505200122014B1A60704734150520014B1868704700BF081605208F
:20F70000054B1B6833B1054B1868B0FA80F0400940007047012070473C150520241505205C
:20F720002DE9F041DDF818800D4617461E4610B100F048FCFEE7204CFFF74CFD00F00EFB83
:20F74000236893F86C30022B23D100F015FB0025FFF704FE15B108B900F0F4FA00F0FEFA6C
:20F7600016B123689B6E33602368002293F86C30022B09BF0125002521688B6E04BFBB4344
:20F780008B66236883F86C2000F0F6FA2846BDE8F0812268936E23EA050301259366236838
:20F7A00083F86C50B8F1000FCFD000F0E5FA29464046FFF78BFBCBE708160520F8B5069F34
:20F7C000044615461E4611B100F0FCFBFEE710B900F0F8FBFEE700F0C1FA0FB1A36E3B60EA
:20F7E000022394F86C2084F86C30D2B2042E37D8DFE806F006032F343200A36E2B43A3660C
:20F80000012A3BD1D4E9021263698A6051605968251DA94208BF5A601A681C49013A1A606E
:20F820000123E26A0868934003430B60142353431749CE1870688768A060E7607D60856081
:20F84000C85866610130C850A36A83B100F0BAFBFEE7A36E0133D2E7022A14D0A566CFE7DE
:20F860000C4B1B68002BCBD000F0ACFBFEE70A4B1B68DB6A9A4201D900F064FA012400F036
:20F880007BFA2046F8BD0024F9E700BF40150520A415052044150520081605202DE9F041B5
:20F8A0001546DDE906861F46044610B900F08AFBFEE711B100F086FBFEE700F03BFB00F09B
:20F8C00081FBB8F1000F02D0A36EC8F80030022394F86C2084F86C30D2B2042F15D8DFE861
:20F8E00007F006030D121000A36E2B43A366012A48D1A36A83B100F065FBFEE7A36E013352
:20F90000F4E7022A52D0A566F1E7294B1B68002BEDD000F057FBFEE7264BE26A1B68002B6A
:20F9200036D1D4E902516369A9604D605D68271DBD4208BF596019680139196001231E49E7
:20F9400093400D682B430B60142353431B4901EB030CDCF80450D5F808E0A560C4F80CE0D0
:20F96000CEF80470AF60C4F814C0CC580134CC50134B1B68DB6A9A4204D9012306B13360EC
:20F98000104A1360012400F028FB2046BDE8F0810D4B04F1180559688F68E16127627D601C
:20F9A0008D601968A36201311960E1E70024EAE7441505202415052040150520A415052038
:20F9C00008160520341505206015052010B5044611B100F0F7FAFEE708B9084B1C6800F0BD
:20F9E000BDF9002094F86C30022B0ABF84F86C000446012400F0C0F9204610BD081605209D
:20FA0000914208B5416000610AD8D21A83699A420DD2084B011D1868FEF794FE002008BD82
:20FA20009A4201D2994202D2034B011DF3E70120F5E700BFE0160520E416052070B50446BD
:20FA40000D461646A1692B46324620462944FFF7D7FF00B970BDA36920461D44236A984740
:20FA6000F0E7FFFF0E4B70B51B680546DB680E46DC68201DFEF77DFE94F828305A0709D5BA
:20FA8000324629462046FFF7D9FF2046236ABDE87040184723F0010384F82830F5E700BF1E
:20FAA000E4160520F8B50546FFF79CFB0D4E04463368834209D90C4F3B681A6852B90B4ADB
:20FAC000116813603960012300E0002320462B603460F8BDDB684FF0FF311868FFF7C2FF57
:20FAE000EAE700BFD4160520E4160520E01605202DE9F0430026DFF830814C4F85B0D8F896
:20FB00000030D3F80090B9F1000F37D00024DB68D3F80090FFF75EFB01A8FFF7C3FF019B8C
:20FB20000546002B3FD15CBB48452FD3FFF716FC29464846FFF796FFCDE901660396002231
:20FB4000386801A9FEF7DAFE0028D8D0019B002BF5DB039C636913B1201DFEF70AFE684610
:20FB6000FFF7A0FF019B0546013B082BE7D8DFE803F01D1D5340531D1D5340000124C9E75F
:20FB80002B4B1B681C68B4FA84F4640922463868A9EB0501FEF750FFFFF7E0FB0028CBD1DA
:20FBA00000F0D0F8C8E7FFF7D9FBC5E794F82830A16943F0010384F82830029B024619442D
:20FBC0002046FFF71DFF0028B9D094F828305A070AD5A36902992A4620461944FFF72EFFDB
:20FBE0002046236A9847AAE723F0010384F82830F6E794F8283043F0010384F82830029950
:20FC0000A16111B900F0DEF9FEE70346024601442046FFF7F5FE92E794F8283023F00103D3
:20FC200084F828308BE700BFE4160520DC160520E0160520F7B5114C00F090F82568BDB9EA
:20FC40000F4F104E3846FEF76FFD3046FEF76CFD0D4B0C211F600D4B0A201E600C4A0D4B83
:20FC60000095FEF723FE206010B10B49FEF7C2FE03B0BDE8F04000F07FB800BFDC1605200A
:20FC8000FC160520E8160520E4160520E01605205C1605200C160520A30A052010B588B023
:20FCA000FFF7C8FF0F4B1B68B3B1002407AA06A905A8CDE90544FEF7E1FB059B079A02936F
:20FCC000069B094901930223084800932346FFF765F9074B186010B900F074F9FEE70120E2
:20FCE00008B010BDDC160520A80A0520F1FA0420D8160520002307B50193074B1B680133F3
:20FD000002D000F05FF9FEE700F05CF9019B002BFCD003B05DF804FB1C0B05204FF0E02278
:20FD20000423136100234FF47A719361044B1B68B3FBF1F3013B536107231361704700BF7B
:20FD4000180B05204FF0E0234FF08052C3F8042DBFF34F8FBFF36F8F7047FFFF08B500F07A
:20FD600031F9044A136801331360BFF34F8FBFF36F8F08BD1C0B052008B5084B1A6812B93B
:20FD800000F020F9FEE71A68013A1A60186818B9BDE8084000F021B908BD00BF1C0B052066
:20FDA00010B500F00FF90446FFF722FA28B14FF0E0234FF08052C3F8042D2046BDE81040B7
:20FDC00000F00BB908B5836913F8023C662B03D1BDE8084000F0D0B800F0F4F8FEE7FFFFF4
:20FDE00010B54FF0807440E90224184A4FF0123440F80C2C4FF003324FF0023C40E9052422
:20FE00004FF0013240F8203C40E9072C4FF010334FF011324FF0093440E90A324FF0083321
:20FE20004FF0073C40E90C344FF006334FF0053240E90E3C4FF0043340E910326FF0020331
:20FE400040F8443C40F8481D10BD00BFF5FC04204FF0E023D3F8082D13B5D06A3049884225
:20FE600002D000F0AFF8FEE7916B2E4A914202D000F0A8F8FEE7002201924FF07F42C3F836
:20FE80001C2DD3F81C3D284A1B0E8DF803309DF8033003F04003137013B900F093F8FEE7F5
:20FEA0009DF803305B060AD400F08CF8FEE7013301939DF803305B00DBB28DF803309DF81D
:20FEC000033013F0800F019BF1D1082B0CBF0023019B164A18BFC3F107031B0203F4E063F6
:20FEE00013604FF0E0230024D3F8202D42F47F02C3F8202DD3F8202D42F07F42C3F8202D3F
:20FF0000C3F81C4DFFF70AFF094B1C6000F04AF8FFF7C6FAFFF7EEFE204602B010BD00BF80
:20FF200031000520E9FF042014170520101705201C0B052008B5EFF305830F2B08D90B4AE0
:20FF40009B5C0B4A12789A4202D900F03BF8FEE74FF0E023074AD3F80C3D126803F4E063B1
:20FF6000934202D900F02EF8FEE708BDF0E300E01417052010170520094A1168086806C8B8
:20FF800081F30B88022181F31488203080F30988BFF36F8F4FF0000080F311881047000081
:20FFA0000816052006480068006880F3088862B661B6BFF34F8FBFF36F8F66DF00BF00006A
:20FFC00008ED00E0EFF311804FF0400181F31188BFF34F8FBFF36F8F704780F31188BFF397
:20FFE0004F8FBFF36F8F7047EFF30980EFF30B82734620E9FC0F0D4A116808604FF040005E
:020000042005D5
:2000000080F31188BFF34F8FBFF36F8FFFF748FA4FF0000080F31188044A11680868B0E842
:20002000FC0F82F30B8880F309881847081605201EF0040F0CBFEFF30880EFF309800149FC
:2000400008470000C5FD042010B5082897BF054B012003EBC00443F830109CBF6260002045
:2000600010BD00BF18170520082838B504460D460CD800F0D3F8064B1B68984206D245EA92
:2000800004400021BDE8384000F0CAB8012038BDEC0A052038B5C4B2022C0D4609D0032C4F
:2000A00005D0012C04D189880420FFF7DDFF2C7038BDC988F8E70A780B46012A02D0022AA5
:2000C00006D070474860022105201970FFF7CCBF4A6842EA00424A600321F5E7082838B5B2
:2000E00004460D460CD800F099F8064B1B68984206D245EA04400121BDE8384000F090B88E
:20010000012038BDEC0A052008B500F087F8054B1B68984203D2BDE8084000F04DB80120FD
:2001200008BD00BFEC0A052010B500F077F80C4A1268904212D2B0FA80F30A490A4A01EBC6
:20014000C0045B095462094C01EBC301084B1462BDE81040D162936200F042B8012010BDFE
:20016000EC0A05206017052018170520B70005209500052038B5054600F050F80C4B0446CD
:200180001B68984211D20B4B13F830202AB129462046BDE8384000F02FB8012103F830106D
:2001A0000520FFF761FF0028F1D0012038BD00BFEC0A052060170520012808B50ED84FF044
:2001C00080434FF000421F20C3F82022FEF7A3FABDE8084000210120FFF746BF012008BDFD
:2001E0004022044B83F836234FF480025A600020704700BF00E100E0012808D151B1064B4F
:200200001A7A022A05D9DB6800200B607047012070470320704700BF6017052001207047D6
:20022000034B11B91A68002AFCD158600020704700200B400B4B10B4186988B19861030C57
:200240005A1ED2B2072A0BD8074ADBB252F8334034B102EBC3025168234680B210BC1847DD
:2002600010BC704700200B401817052008B5FEF73DF808BD08B5FEF739F808BD08B5FEF736
:2002800035F808BD08B5FEF731F808BD08B5FEF72DF808BD08B5FEF729F808BD08B5FEF7E6
:2002A00025F808BD08B5FEF721F808BD08B5FEF71DF808BD08B5FEF719F808BD08B5FEF706
:2002C00015F808BD08B5FEF711F808BD08B5FEF70DF808BD08B5FEF709F808BD08B5FEF726
:2002E00005F808BD08B5FEF701F808BD08B5FDF7FDFF08BD08B5FDF7F9FF08BD08B5FDF73B
:20030000F5FF08BD08B5FDF7F1FF08BD08B5FDF7EDFF08BD08B5FDF7E9FF08BD08B5FDF74D
:20032000E5FF08BD08B5FDF7E1FF08BD08B5FDF7DDFF08BD08B5FDF7D9FF08BD08B5FDF76D
:20034000D5FF08BD08B5FDF7D1FF08BD08B5FDF7CDFF08BD08B5FDF7C9FF08BD08B5FDF78D
:20036000C5FF08BD08B5FDF7C1FF08BD08B5FDF7BDFF08BD08B5FDF7B9FF08BD08B5FDF7AD
:20038000B5FF08BD08B5FEF783F908BD08B5FEF782F908BD08B5FEF781F908BD08B5FEF75C
:2003A00080F908BD08B5FEF77FF908BD08B5FEF77EF908BD08B5FEF77DF908BD08B5FEF783
:2003C0007CF908BD08B5FEF77BF908BD08B5FEF77AF908BD08B5FDF789FF08BD08B5FDF75F
:2003E00085FF08BD08B5FDF781FF08BD08B5FDF77DFF08BD08B5FDF779FF08BD08B5FDF72D
:2004000075FF08BD08B5FDF771FF08BD08B5FDF76DFF08BD08B5FDF769FF08BD08B5FDF74C
:2004200065FF08BD08B5FDF761FF08BD08B5FDF75DFF08BD08B5FDF759FF08BD08B5FDF76C
:2004400055FF08BD08B5FDF751FF08BD08B5FDF74DFF08BD08B5FDF749FF08BD08B5FDF78C
:2004600045FF08BD08B5FDF741FF08BD08B5FDF73DFF08BD08B5FDF739FF08BD08B5FDF7AC
:2004800035FF08BD08B5FDF731FF08BD08B5FDF72DFF08BD08B5FDF729FF08BD08B5FDF7CC
:2004A00025FF08BD08B5FDF721FF08BD08B5FDF71DFF08BD08B5FDF719FF08BD08B5FDF7EC
:2004C00015FF08BD08B5FDF711FF08BD08B5FDF70DFF08BD08B5FDF709FF08BD08B5FDF70C
:2004E00005FF08BD08B5FDF701FF08BD08B5FDF7FDFE08BD08B5FDF7F9FE08BD08B5FDF72E
:20050000F5FE08BD08B5FDF7F1FE08BD08B5FDF7EDFE08BD08B5FDF7E9FE08BD08B5FDF74F
:20052000E5FE08BD08B5FDF7E1FE08BD08B5FDF7DDFE08BD08B5FDF7D9FE08BD08B5FDF76F
:20054000D5FE08BD08B5FDF7D1FE08BD08B5FDF7CDFE08BD08B5FDF7C9FE08BD08B5FDF78F
:20056000C5FE08BD08B5FDF7C1FE08BD08B5FDF7BDFE08BD08B5FDF7B9FE08BD08B5FDF7AF
:20058000B5FE08BD08B5FDF7B1FE08BD08B5FDF7ADFE08BD08B5FDF7A9FE08BD08B5FDF7CF
:2005A000A5FE08BD08B5FDF7A1FE08BD08B5FDF79DFE08BD08B5FDF799FE08BD08B5FDF7EF
:2005C00095FE08BD08B5FDF791FE08BD08B5FDF78DFE08BD08B5FDF789FE08BD08B5FDF70F
:2005E00085FE08BD08B5FDF781FE08BD08B5FDF77DFE08BD08B5FDF779FE08BD08B5FDF72F
:2006000075FE08BD08B5FDF771FE08BD08B5FDF76DFE08BD08B5FDF769FE08BD08B5FDF74E
:2006200065FE08BD08B5FDF761FE08BD08B5FDF75DFE08BD08B5FDF759FE08BD08B5FDF76E
:2006400055FE08BD08B5FDF751FE08BD08B5FDF74DFE08BD08B5FDF749FE08BD08B5FDF78E
:2006600045FE08BD08B5FDF741FE08BD08B5FDF73DFE08BD08B5FDF739FE08BD08B5FDF7AE
:2006800035FE08BD08B5FDF731FE08BD08B5FDF72DFE08BD08B5FDF729FE08BD08B5FDF7CE
:2006A00025FE08BD08B5FDF721FE08BD08B5FDF71DFE08BD08B5FDF719FE08BD08B5FDF7EE
:2006C00015FE08BD08B5FDF711FE08BD08B5FDF70DFE08BD08B5FDF709FE08BD08B5FDF70E
:2006E00005FE08BD08B5FDF701FE08BD08B5FDF7FDFD08BD08B5FDF7F9FD08BD08B5FDF730
:20070000F5FD08BD08B5FDF7F1FD08BD08B5FDF7EDFD08BD08B5FDF7E9FD08BD08B5FDF751
:20072000E5FD08BD08B5FDF7E1FD08BD08B5FDF7DDFD08BD08B5FDF7D9FD08BD08B5FDF771
:20074000D5FD08BD70B5002404700C68ACB1002B14BF41256125411C0A3D2646B4FBF2F4E5
:2007600002FB1463092B94BF30335B19B24201F8013BF2D9081A013802E03023437001204F
:2007800070BDFFFF07B501900648037C3BB10122836801A99847012003B05DF804FB4FF02A
:2007A000FF30F9E7701705202DE9F04F744B80461B7C0C468FB0002B00F0C98000254FF0B4
:2007C000010AAB462E46039598F80000002800F0C08025282ED0FFF7D5FF08F101080135DC
:2007E000F2E70A20904600FB0911A1F1300998F8011008F10102A1F130000928F1D92E298F
:2008000005D1904612F8011F30390929F9D998F80170782F0CD8632F0FD86AD0A7F1460276
:20082000D2B21C2A04D8574941FA02F2D2073AD5384660E04FF00009D9E7A7F16402524BFA
:20084000D2B20AFA02F21A4240F08780732F56D0D307EDD554F8043B0A22029302A901230A
:2008600005A8FFF76FFF834605AB1E18702F20D01DD8622F28D06F2F26D05F46B9452FDC69
:20088000A9EB0B02D945B8BF0022154446B1374632461078164602F1FF3930BB2F44BD1A77
:2008A00008F1020890E7582FE0D101235BE0752FE2E754F8043B042204A903A8049300F02A
:2008C0007AF81022012352E054F8043B6F2F039302D003D90A22F5E70822F3E70222F1E7A9
:2008E0002020FFF74FFF0137C8E7FFF74BFF4A46CFE754F8040BFFF745FF0135D0E754F839
:20090000047B002FCCD0384600F062F88346024691450FDCA9EB0B02CB45C8BF002202EBAC
:2009200005093D462A4612F8010B50B9A9EB07021544B5E720200192FFF724FF019A01324B
:20094000E6E70192FFF71EFF019A1546EAE74FF0FF3528460FB0BDE8F08F692F3FF47AAFA5
:20096000782F83D1002354F8042B0392102203A905A8FFF7E7FE05AB83461E187DE700BF11
:2009800070170520FEFFFBEF241812000FB407B504A951F8040B0191FFF706FF03B05DF85D
:2009A00004EB04B0704702440346934200D1704703F8011BF9E70A44431E914200D17047F0
:2009C00010B511F8014B914203F8014FF9D110BD034613F8012B002AFBD1181A01387047B0
:2009E0000D0A4672656552544F53204D65737361676520427566666572732050696E672D69
:200A0000506F6E672044656D6F2E2E2E0D0A0057616974696E6720666F722070696E672EC6
:200A20002E2E0D0A0053656E64696E6720706F6E672E2E2E0D0A0050696E6720706F6E67A4
:200A400020646F6E652C206465696E697469616C697A696E672E2E2E0D0A004C6F6F70690C
:200A60006E6720666F72657665722E2E2E0D0A004150505F5441534B004661696C6564200F
:200A8000746F207374617274204672656552544F53206F6E20636F7265312E0D0A00494472
:200AA0004C4500546D725100546D7220537663004D61696E005365636F6E6461727900FF76
:200AC0000020094000300940004009400050094000400B4000500B4000600B4000700B4086
:200AE00000800B4000900B40040000000200000002000000F80A052003000000B00A05203F
:200B000003000000B50A0520F8B500BFF8B500BFC0FEFF7F01000000006CDC02AAAAAAAAE7
:04000005000003559F
:00000001FF
